{
  "_format": "hh-sol-artifact-1",
  "contractName": "EnsName",
  "sourceName": "src/backend/contracts/EnsName.sol",
  "abi": [
    {
      "inputs": [],
      "stateMutability": "nonpayable",
      "type": "constructor"
    },
    {
      "inputs": [
        {
          "internalType": "uint256",
          "name": "_itemId",
          "type": "uint256"
        }
      ],
      "name": "buyENS",
      "outputs": [],
      "stateMutability": "payable",
      "type": "function"
    },
    {
      "inputs": [],
      "name": "ensContract",
      "outputs": [
        {
          "internalType": "contract IERC721",
          "name": "",
          "type": "address"
        }
      ],
      "stateMutability": "view",
      "type": "function"
    },
    {
      "inputs": [],
      "name": "itemCount",
      "outputs": [
        {
          "internalType": "uint256",
          "name": "",
          "type": "uint256"
        }
      ],
      "stateMutability": "view",
      "type": "function"
    },
    {
      "inputs": [
        {
          "internalType": "uint256",
          "name": "",
          "type": "uint256"
        }
      ],
      "name": "items",
      "outputs": [
        {
          "internalType": "uint256",
          "name": "itemId",
          "type": "uint256"
        },
        {
          "internalType": "string",
          "name": "name",
          "type": "string"
        },
        {
          "internalType": "uint256",
          "name": "tokenId",
          "type": "uint256"
        },
        {
          "internalType": "uint256",
          "name": "price",
          "type": "uint256"
        },
        {
          "internalType": "bool",
          "name": "listed",
          "type": "bool"
        },
        {
          "internalType": "address payable",
          "name": "seller",
          "type": "address"
        }
      ],
      "stateMutability": "view",
      "type": "function"
    },
    {
      "inputs": [
        {
          "internalType": "string",
          "name": "_name",
          "type": "string"
        },
        {
          "internalType": "uint256",
          "name": "_tokenId",
          "type": "uint256"
        },
        {
          "internalType": "uint256",
          "name": "_price",
          "type": "uint256"
        }
      ],
      "name": "listENS",
      "outputs": [],
      "stateMutability": "nonpayable",
      "type": "function"
    },
    {
      "stateMutability": "payable",
      "type": "receive"
    }
  ],
  "bytecode": "0x60a060405234801561001057600080fd5b507f57f1887a8bf19b14fc0df6fd9b2acc9af147ea850000000000000000000000006080527357f1887a8bf19b14fc0df6fd9b2acc9af147ea8561091161006860003960008181608e015261055801526109116000f3fe60806040526004361061004e5760003560e01c80634783de501461005a5780636881e7631461007c5780636bfb0d01146100cd578063bfb231d2146100f1578063f3eee3851461012357600080fd5b3661005557005b600080fd5b34801561006657600080fd5b5061007a61007536600461070e565b610136565b005b34801561008857600080fd5b506100b07f000000000000000000000000000000000000000000000000000000000000000081565b6040516001600160a01b0390911681526020015b60405180910390f35b3480156100d957600080fd5b506100e360005481565b6040519081526020016100c4565b3480156100fd57600080fd5b5061011161010c3660046107d2565b610258565b6040516100c4969594939291906107eb565b61007a6101313660046107d2565b610323565b6000811161018b5760405162461bcd60e51b815260206004820152601e60248201527f50726963652073686f756c642062652067726561746572207468616e2030000060448201526064015b60405180910390fd5b60008054908061019a83610877565b90915550506040805160c081018252600080548083526020808401888152848601889052606085018790526001608086018190523360a08701529284528282529490922083518155935180519394936101fb9392850192919091019061065f565b50604082015160028201556060820151600382015560808201516004909101805460a0909301516001600160a01b031661010002610100600160a81b0319921515929092166001600160a81b031990931692909217179055505050565b600160208190526000918252604090912080549181018054610279906108a0565b80601f01602080910402602001604051908101604052809291908181526020018280546102a5906108a0565b80156102f25780601f106102c7576101008083540402835291602001916102f2565b820191906000526020600020905b8154815290600101906020018083116102d557829003601f168201915b50505050600283015460038401546004909401549293909290915060ff81169061010090046001600160a01b031686565b6000818152600160208181526040808420815160c08101909252805482529283018054919392840191610355906108a0565b80601f0160208091040260200160405190810160405280929190818152602001828054610381906108a0565b80156103ce5780601f106103a3576101008083540402835291602001916103ce565b820191906000526020600020905b8154815290600101906020018083116103b157829003601f168201915b5050509183525050600282015460208201526003820154604082015260049091015460ff811615156060808401919091526101009091046001600160a01b031660809092019190915281015190915034101561046c5760405162461bcd60e51b815260206004820152601960248201527f50726963652073656e74206973206e6f7420636f7272656374000000000000006044820152606401610182565b60008211801561047e57506000548211155b6104b95760405162461bcd60e51b815260206004820152600c60248201526b15dc9bdb99c81a5d195b525960a21b6044820152606401610182565b608081015115156001146105215760405162461bcd60e51b815260206004820152602960248201527f54686973206974656d20697320686173206e6f74206265656e206c697374656460448201526820666f722073616c6560b81b6064820152608401610182565b60a081015160408083015190516323b872dd60e01b81526001600160a01b03928316600482015233602482015260448101919091527f0000000000000000000000000000000000000000000000000000000000000000909116906323b872dd90606401600060405180830381600087803b15801561059e57600080fd5b505af11580156105b2573d6000803e3d6000fd5b505060006080840181905260a08401516040519193506001600160a01b0316915034908381818185875af1925050503d806000811461060d576040519150601f19603f3d011682016040523d82523d6000602084013e610612565b606091505b505090508061065a5760405162461bcd60e51b81526020600482015260146024820152732330b4b632b2103a379039b2b7321022ba3432b960611b6044820152606401610182565b505050565b82805461066b906108a0565b90600052602060002090601f01602090048101928261068d57600085556106d3565b82601f106106a657805160ff19168380011785556106d3565b828001600101855582156106d3579182015b828111156106d35782518255916020019190600101906106b8565b506106df9291506106e3565b5090565b5b808211156106df57600081556001016106e4565b634e487b7160e01b600052604160045260246000fd5b60008060006060848603121561072357600080fd5b833567ffffffffffffffff8082111561073b57600080fd5b818601915086601f83011261074f57600080fd5b813581811115610761576107616106f8565b604051601f8201601f19908116603f01168101908382118183101715610789576107896106f8565b816040528281528960208487010111156107a257600080fd5b82602086016020830137600060208483010152809750505050505060208401359150604084013590509250925092565b6000602082840312156107e457600080fd5b5035919050565b8681526000602060c08184015287518060c085015260005b8181101561081f5789810183015185820160e001528201610803565b8181111561083157600060e083870101525b5060408401889052606084018790528515156080850152601f01601f1916830160e001915061085d9050565b6001600160a01b03831660a0830152979650505050505050565b600060001982141561089957634e487b7160e01b600052601160045260246000fd5b5060010190565b600181811c908216806108b457607f821691505b602082108114156108d557634e487b7160e01b600052602260045260246000fd5b5091905056fea264697066735822122061f29783dcd62665439a3d4686af8c4e0d41584c3b9c22484e31583fcaa54e0a64736f6c63430008080033",
  "linkReferences": {},
  "deployedLinkReferences": {}
}